:020000040800F2
:1000000000040020C100000851030008010400089A
:1000100001040008010400080104000801040008AC
:10002000010400080104000801040008010400089C
:10003000010400080104000801040008010400088C
:10004000010400080104000801040008010400087C
:10005000010400080104000801040008010400086C
:10006000010400080104000801040008010400085C
:10007000010400080104000801040008110400083C
:10008000010400080104000801040008010400083C
:10009000010400080104000801040008010400082C
:1000A000010400080104000801040008910B000885
:1000B000010400080104000801040008010400080C
:1000C00072B6224880F30988022080F31488BFF3B7
:1000D0006F8F01F0E5FA00F00BFB1D481D491E4A29
:1000E000914202DA08600431FAE71C49174A91424A
:1000F00002DA08600431FAE719491A4A1A4B9A429F
:1001000004DA0868106004310432F8E70020174967
:10011000174A914202DA08600431FAE701F080FAE6
:1001200001F0B6FA134C144DAC4203DA216888474B
:100130000434F9E701F05CFE104C114DAC4203DAD7
:10014000216888470434F9E70E4908470006002073
:1001500055555555000000200004002000040020E3
:100160003065000800060020B8060020B806002010
:10017000C0120020C0000008C0000008C000000835
:10018000C000000881160008000000000000000008
:10019000F0B544464D4656465F46F0B46B46CB60DC
:1001A000C3689D46F0BCA046A946B246BB46F0BD1A
:1001B00062B6281CA047002000F0B2FF00F038FB18
:1001C000014A024B1360FEE704ED00E000000080EE
:1001D000002243088B4274D303098B425FD3030A86
:1001E0008B4244D3030B8B4228D3030C8B420DD399
:1001F000FF22090212BA030C8B4202D31212090227
:1002000065D0030B8B4219D300E0090AC30B8B4264
:1002100001D3CB03C01A5241830B8B4201D38B0312
:10022000C01A5241430B8B4201D34B03C01A5241B7
:10023000030B8B4201D30B03C01A5241C30A8B42FA
:1002400001D3CB02C01A5241830A8B4201D38B02E5
:10025000C01A5241430A8B4201D34B02C01A524189
:10026000030A8B4201D30B02C01A5241CDD2C309FB
:100270008B4201D3CB01C01A524183098B4201D377
:100280008B01C01A524143098B4201D34B01C01A62
:10029000524103098B4201D30B01C01A5241C308DA
:1002A0008B4201D3CB00C01A524183088B4201D349
:1002B0008B00C01A524143088B4201D34B00C01A35
:1002C0005241411A00D20146524110467047FFE7A1
:1002D00001B5002000F00CF802BDC0460029F7D09F
:1002E00076E77047000000000000000000000000FA
:1002F0007047C04600000000000000000000000041
:100300008023024A11680B43136070470038014094
:100310000F3011D072B6EFF30983203B83F30988C5
:1003200080225204DA61064A1168926989689268EB
:10033000914202D8034A9A617047034A9A61FBE7E7
:10034000C00A0020C0010008BD0100080000000034
:10035000EFF30983203383F3098862B67047C04600
:1003600072B60722C31D93430649074A08681268FC
:10037000121A934203D8C3180B6062B6704700206C
:10038000FBE7C046500A0020700900200000000072
:1003900072B6037F072B0CD8114A9B00D3589F4697
:1003A000026A936801339360026843681A600268C6
:1003B000536001235B420362002382680377094B89
:1003C0001B6899689142FBD25A68036042601060D2
:1003D000586062B670470022036A1A60E9E7C046B7
:1003E000B0570008C00A0020000000000000000014
:1003F000FEE7C04600000000000000000000000012
:10040000FEE7C04600000000000000000000000001
:10041000F8B546464F46C0B48026F6053369F04627
:100420009B0706D44046FFF773FF0CBC90469946E5
:10043000F8BD0023336172B6194C706AE369A16A92
:100440009A68451A954218D325000027B1461C35F5
:100450008A18A2621A68D9685560E261DF60AA4210
:1004600018D062B61869884772B64A46E369506A7E
:10047000A16A9A68461AB242EAD90A4CA34207D046
:100480005218121A012A08D980231218DB055A6360
:1004900062B6C7E74A46D760E3E70222F4E7C04600
:1004A000C00A0020DC0A002000000000000000005C
:1004B0000C4A10B51068916903685A601360906126
:1004C0000122027700220A778A6800E01B689C6894
:1004D0009442FBD85A680B604A6011605960FFF77C
:1004E00057FE10BDC00A0020000000000000000000
:1004F00010B5002304240648C258002A04D072B65E
:10050000517F2143517762B60433142BF4D110BDCF
:10051000280A002000000000000000000000000089
:1005200072B68023DB055B6A62B65B1A521A002141
:10053000934207D30123044A01311370034A137015
:10054000034B1860080070478809002089090020C3
:10055000B8060020000000000000000000000000BD
:10056000F0B584460F4F10483E68030005E015784B
:10057000227801310133954209D10C001A009E42C4
:10058000F5D80B78002B02D13860002008E0012359
:10059000064A01201370064A13706246054B1A6022
:1005A000F0BDC0463C0A0020400A00208809002017
:1005B00089090020B80600200000000000000000AB
:1005C0000023002907D1054A01331370044A137030
:1005D000044B1860012318007047C04688090020AA
:1005E00089090020B806002000000000000000007B
:1005F00072B6034A1368591C1160187062B67047CE
:100600003C0A002000000000000000000000000084
:1006100070B501780400094D002907D0286801341D
:1006200003689B68984721780029F7D1286802223F
:10063000036803491B68984770BDC046BC0600208C
:10064000D05700080000000000000000000000007B
:1006500070B501780400002908D0054D28680134E0
:1006600003689B68984721780029F7D170BDC04680
:10067000BC06002000000000000000000000000098
:10068000F0B5474680B4060084B0002823D0E84681
:100690006F4630000A21FFF721FE01373031CCB21E
:1006A0007D1E30002C700A21FFF792FD061EF0D14E
:1006B00047450CD96B460B4E5F1E00E02C78306826
:1006C00021000368013D9B689847BD42F6D104B004
:1006D00004BC9046F0BD034B3021186803689B684A
:1006E0009847F4E7BC06002000000000000000006E
:1006F0000123022027490A6813430B600A68254B2F
:100700001042FBD003215A680C208A4319005A601A
:100710005A685A604B681F4A0340FBD1F9201168A0
:10072000014011605360516B01330B435363F73841
:10073000516B184B0842FBD00122596A02200A4330
:100740005A621A00516A134B0842FBD0A02292034E
:100750005A60002280218020DA621A631A684904F4
:100760000A431A60800419680A4A0142FBD0112129
:10077000094B0C201960022351680B4353605368E6
:1007800004490340082BFAD18A69073B13438B6164
:100790007047C046001002400020024000000000E8
:1007A00010B5030072B60068002803D002681A6012
:1007B00062B610BD9A68002AFAD058689047F7E7E9
:1007C00072B6020002E08B4205D01A00136898420C
:1007D000F9D162B670470B681360FAE700000000B9
:1007E00010B572B60E4C2068A16983688A6893427E
:1007F00001D262B610BD03685C602360A061012471
:10080000047700240C7700E01B689C68A242FBD9A7
:100810005A680B604A6011605960FFF7B9FCE8E75D
:10082000C00A0020000000000000000000000000DE
:1008300010B5FFF73DFE10BD0000000000000000F5
:10084000054B10B51A689B6992689B689A4201D95A
:10085000FFF72EFE10BDC046C00A002000000000B9
:1008600010B572B6074B9B69DC6B9A68944201D055
:10087000824200D29860D863FFF7E2FF62B62000A0
:1008800010BDC046C00A00200000000000000000AB
:10089000124B0162996970B582688C68A2420BD8CC
:1008A000002101771B6899688A42FBD95A68036066
:1008B00042601060586070BD00220A771A0012680A
:1008C0009568AC42FBD954680A604C602160516065
:1008D000986101230377FFF75BFCECE7C00A002077
:1008E00010B572B6836801338360002B01DD62B6F8
:1008F00010BD036800211A68026050601800FFF7FD
:10090000C7FFF4E700000000000000000000000046
:1009100010B5040072B624394118C1600B61029B06
:100920004B610F4B0B620223037700238260C2638B
:10093000012243778363436383610A4B82775A6959
:100940000361426110615861030024334362043340
:100950008362C3620021FFF79BFF62B6200010BDD7
:10096000B1010008C00A00200000000000000000E3
:10097000064B10B5996908771868026853601A60C9
:10098000986101230377FFF703FC10BDC00A002024
:1009900010B572B60A4CA3691A00986A28329042C0
:1009A00006D0016899620D234A60037762B610BDD4
:1009B0000E20FFF7DDFFA3691A00986A2832F0E7DE
:1009C000C00A00200000000000000000000000003D
:1009D00010B5020072B68368013B83600020002BD3
:1009E00001DB62B610BD074C0530A3691A6251687D
:1009F0001A6059600B605360FFF7BAFFA369186A69
:100A0000EFE7C046C00A0020000000000000000020
:100A1000002382680377054B1B6899689142FBD2DB
:100A20005A6803604260106058607047C00A002036
:100A30004369826910B593421DD082680132826099
:100A40005A1C426119704369026993420CD20368CF
:100A500098420ED01A6802605060002218001A6294
:100A6000FFF7D6FF002010BDC368436103689842BA
:100A7000F0D10020F7E78268002ADED0042040424F
:100A8000F1E7C04600000000000000000000000088
:100A90008369426910B59A4218D082680132826037
:100AA0005A1C82611C7803699A420CD203689842EE
:100AB00007D01A6802605060002218001A62FFF71F
:100AC000A7FF200010BDC3688361EFE78268002A9A
:100AD000E3D003204042F5E70000000000000000E2
:100AE0000C4B10B59C6972B6030028332362236057
:100AF000C36A216363601C60037FC4620E2B05D050
:100B00000C20FFF735FF206A62B610BDFFF780FFAB
:100B1000F6E7C046C00A0020000000000000000008
:100B200010B5436B1943037F41630A2B0BD00B2B8A
:100B300000D010BD036A19408B42FAD10023036232
:100B4000FFF766FFF5E7036A0B42F2D0002303626A
:100B5000FFF75EFFEDE7C046000000000000000068
:100B600070B5046806000D00A0420ED0E3682B4368
:100B7000E360002D02D022691A4203D0A1686068A8
:100B8000FFF7CEFF2468A642F0D170BD0000000040
:100B9000F0B5454657464E46E0B43F4EF046756FB9
:100BA0002F68EC692C62230734D1E3052AD4A3060D
:100BB00017D480233B4201D0234241D1630608D59C
:100BC00072B6736CB26C934246D040239F432F6041
:100BD00062B64046FFF79CFB1CBC90469946A24675
:100BE000F0BD72B6AB8CDBB299467369002B3BD07B
:100BF0002A4B494618009A46FFF71AFF002838DBAF
:100C000062B6D6E772B6802125488900FFF7A8FFB3
:100C100062B6CCE72107C90FC901E30701D520233C
:100C20001943A30701D540231943630702D5802345
:100C30005B00194372B61A48FFF792FF62B6B4E739
:100C400072B6184B18009946FFF722FF002816DBF2
:100C500080B2288562B6B1E7B36B002BB5D0301DEA
:100C60001021FFF77DFFB0E7301D0421FFF778FF6B
:100C7000BEE7504680210838FFF772FFC0E74846BC
:100C800008212C38FFF76CFFC0233A009A43803BC1
:100C900013432B60DEE7C0468C0900209809002032
:100CA00090090020BC0900200000000000000000A6
:100CB000114B70B59C6972B6A36B002B1AD000253E
:100CC0000BE002681A605360826B9860DA6083639D
:100CD000FFF79EFEA36B002B08D0DA681868A263AA
:100CE0008342EED19D60A36B002BF6D1E36BA36032
:100CF000FFF7A6FD62B670BDC00A0020000000002C
:100D0000114B70B59D690468C368AB63844218D009
:100D1000E96B002B09D01A68934203D09268914284
:100D200000D21100DB68002BF5D12368A9600360B5
:100D30005860A36B8460C360A0632000FFF768FE67
:100D400070BD0023A360FBE7C00A00200000000084
:100D5000134B70B59D6972B6C3680468AB63844277
:100D60001BD0E96B002B09D01A68934203D092681C
:100D7000914200D21100DB68002BF5D12368A960F5
:100D800003605860A36B8460C360A0632000FFF71A
:100D90003FFEFFF755FD62B670BD0023A360FAE782
:100DA000C00A002000000000000000000000000059
:100DB00070B52F4B050080689C69002853D0A2684D
:100DC00083689A4207D9037F8260062B32D0072BB3
:100DD0001CD0002B12D02B0003E09A68A1688A4235
:100DE00002D31B689D42F8D15A68236062600620D6
:100DF00014605C602562FFF7BBFD70BD436802684C
:100E00001A6002685360FFF703FEE4E74368016875
:100E1000196001684B60016A0B0002E09E68B242F3
:100E200002D81B689942F9D15A6803604260106089
:100E30005860D0E743680168196001684B60016A37
:100E40000B0002E09E68B24202D81B689942F9D1B9
:100E50005A6803604260106058608868A2688368BE
:100E60009342B0D3B7E7A36BAC60EB60A563C4E774
:100E7000C00A002000000000000000000000000088
:100E800010B572B6FFF794FF62B610BD0000000007
:100E900070B504000E00002818D025001035280079
:100EA000FFF7EEFFA36800220024002B06D059684C
:100EB0001B688C4601346244002BF8D1002E00D010
:100EC00032602800FFF744FF200070BD004CE4E7CB
:100ED000080A0020000000000000000000000000E0
:100EE00070B5083806680400350010360835300043
:100EF000FFF7C6FF2B00AB4204D0A34202D31B680E
:100F0000AB42FAD11A68002A03D0944201D31300ED
:100F1000F1E722601C60616820680A000832A218AC
:100F2000824209D059680A0008329A18944210D0B7
:100F30003000FFF70DFF70BD5068844661440831F2
:100F400061601268226059680A0008329A18944257
:100F5000EED16268944661440831596022681A6093
:100F6000E6E7C046000000000000000000000000AE
:100F700010B572B6837F013BDBB28377002B02D1C1
:100F8000037F0F2B01D062B610BD0322437F1340B5
:100F9000012B0ED0022BF6D1026943691A61026956
:100FA000536162B6036C72B61A680260186062B66A
:100FB000EAE7026943691A610269536162B6FFF7A1
:100FC0008FFFE1E7000000000000000000000000CB
:100FD00070B5040072B6037F0F2B07D0074B426A2F
:100FE0009B691A6043620920FFF7C2FC256A62B65A
:100FF0002000FFF7BDFF280070BDC046C00A0020DA
:1010000070B5074C0026250014352068002802D052
:10101000FFF7DEFF26600434AC42F6D170BDC04657
:10102000280A00200000000000000000000000006E
:10103000F0B5474680B4071E39D00723CE1D9E4326
:10104000093398463D00B84440460835FFF718FF7D
:1010500003E063689E4214D925002C68002CF8D167
:101060004046FFF775FE3B68002B22D03000083069
:10107000984700281DD007604660083004BC9046A1
:10108000F0BD32000832934208D223682B604046FC
:101090002760FFF75DFE20000830EFE721689B1B0B
:1010A000A218083B116053602A606660EFE7024FA8
:1010B000C3E70020E2E7C046080A00200000000065
:1010C000836810B501338360002B00DD10BD036819
:1010D0001A6802605060002218001A62FFF798FC3C
:1010E000F4E7C0460000000000000000000000001F
:1010F00070B58468050001348160002C0BDC022689
:1011000076426868013443686B601D60FFF780FCBD
:101110000662012CF5D170BD000000000000000047
:1011200070B572B60D4B9C6925002062606A24354B
:10113000854206D003686362FFF76AFC606AA842D2
:10114000F8D1637F9B0704D1226963691A61226920
:1011500053610F20FFF70CFC70BDC046C00A002091
:101160001B4B10B5DA6982420FD0416802681C330C
:101170000A60026851600021C1609A4204D09168FF
:1011800083688C466344936010BD18000024116886
:101190001C30D9614860D460814215D0886892685B
:1011A000844662448A608021C905496A9B6ACB1AD9
:1011B0009A42E9D9D21A012A04D980238A18DB0578
:1011C0005A63E1E70222F8E78023DB05DC60DBE716
:1011D000C00A002000000000000000000000000025
:1011E00003618023DB05C26070B55A6A012922D9E8
:1011F000194D2C00EB691C34A3421ED089189C6841
:10120000AA6A8A1AA24203D211E01B68121B9C68C8
:101210009442FAD359680360416008605860826064
:1012200099688A1A9A6001235B426B6270BD8026BE
:10123000F6057163ECE70221DAE7AA62E861286249
:10124000036043608023816089180022DB055963B5
:101250001A610232DA60E9E7C00A002000000000EB
:1012600030B5050087B04B1C12D00B4C0B4AA3695C
:1012700001A8FFF7B5FF2800FFF77AFB049B002BBE
:1012800002D001A8FFF76CFFA369186A07B030BD50
:10129000FFF76EFB004CF7E7C00A0020910300083F
:1012A00010B584680300621E82600020002A00DB03
:1012B00010BD00290BD0074A926913625868136069
:1012C000506002605A600520FFF7CAFFF0E79C609B
:1012D0000138EDE7C00A0020000000000000000017
:1012E00010B500290AD0074B42689B6918605A6004
:1012F000136043600420FFF7B3FF10BD012040429C
:10130000FBE7C046C00A002000000000000000000B
:10131000F0B54E46454657469946C369E0B40400C9
:101320000E001500984672B60027A368002B1ED049
:10133000A368013BA36063695A1C6261721C9246F8
:1013400032781A7063692269934201D3E36863615A
:101350004346002B01D02000C04762B6013D013753
:10136000002D0BD072B6A3685646002BE0D149463B
:101370002000FFF7B5FF0028D7D062B638001CBCAC
:1013800090469946A246F0BD000000000000000013
:1013900010B53030FFF7BCFF10BDC04600000000A4
:1013A000012310B530305B42FFF7B2FF10BDC046DD
:1013B00070B504000E00150072B605E0290020008B
:1013C000FFF78EFF002817DBA368002BF6D0A36879
:1013D000013BA36063695A1C62611E7063692269E4
:1013E000934201D3E3686361E369002B01D02000DD
:1013F000984762B6002070BD62B6FCE700000000AE
:1014000010B53030FFF7D4FF10BDC046000000001B
:10141000012210B530305242FFF7CAFF10BDC0465E
:10142000F8B54F4646460400C0B4894690461D00B4
:10143000C76972B60026002F08D02000B84705E023
:1014400029002000FFF74CFF002817D1A368002BCC
:10145000F6D0A368013BA360A3695A1CA2614A4667
:101460001B789355A3692269934201D3E368A36172
:1014700062B60136B04502D072B6DCE762B6300023
:101480000CBC90469946F8BD00000000000000002A
:1014900010B50C30FFF7C4FF10BDC04600000000BF
:1014A000012310B50C305B42FFF7BAFF10BDC046F8
:1014B00070B504000D0072B6C369002B07D09847C1
:1014C00005E029002000FFF70BFF00280EDBA368D2
:1014D000002BF6D0A368A269013BA360531CA36153
:1014E00010782269934201D3E368A36162B670BDAC
:1014F00010B50C30FFF7DCFF10BDC0460000000047
:10150000012110B50C304942FFF7D2FF10BDC04693
:1015100010B5010072B60820FFF7A2FE62B610BD3A
:1015200010B50120FFF7F4FF72B68023DB05586A7F
:1015300062B610BD000000000000000000000000C6
:1015400010B5EFF30583DB0501D1FFF779F962B63A
:1015500010BDC046000000000000000000000000B8
:10156000EFF31080C30702D4EFF3058372B6704720
:1015700030B50500C30711D5284A116891423CD007
:101580000023096801339142FBD14C688C4232D070
:101590006468013B9442FBD1002B2CD1AB0713D5DF
:1015A0001E4B1C00DA691C34A2422BD000231268A7
:1015B0000133A242FBD1516891421CD04968013BE2
:1015C000A142FBD1002B16D100206B0712D5134A84
:1015D000116991421CD00023096901339142FBD16A
:1015E0004C698C4207D06469013B9442FBD1581E80
:1015F0008341D8B230BD0120FCE7546800239442F7
:10160000C6D1CBE7196A140000239142D6D1DBE79B
:101610004C6900238C42E6D1ECE7C046C00A0020AA
:1016200080229446F0B50026104F114D114C124BFC
:101630001249BC449C420DD91A0001C901C294420E
:10164000FBD8DA431419A4080134A4001B199D42E5
:1016500002D940C39D42FCD81037674504D0BC680E
:10166000FD6839687B68E5E7F0BDC046E0570008D3
:10167000C0120020C0120020C0120020E86500083F
:10168000FEE7C0460000000000000000000000006F
:101690007047C0460000000000000000000000008D
:1016A0007047C0460000000000000000000000007D
:1016B0000022024B1B605B609A607047540A002056
:1016C0000122024B1B605B609A607047C0060020DD
:1016D0007047C0460000000000000000000000004D
:1016E0000022024B1B605B609A607047C0060020BE
:1016F00070B58024074B084A9B69084D9A616400C5
:101700006C830748FFF704FF2C830548FFF700FFB1
:10171000F6E7C046C00A0020A05C000800080048A8
:10172000881300000000000000000000000000001E
:1017300070B58024074B084A9B69084D9A61A40044
:101740006C830748FFF7E4FE2C830548FFF7E0FEB3
:10175000F6E7C046C00A0020AC5C0008000800485C
:10176000C4090000000000000000000000000000AC
:1017700010B52E48FEF76CFFA8204000FEF780FF52
:101780002B4C2000FEF744FF2A48FEF761FF44205F
:10179000FEF776FF2000FEF73BFF2748FEF758FFD5
:1017A0001420FEF76DFF2000FEF732FF2348FEF7FE
:1017B0004FFF0C20FEF764FF2000FEF729FF2048B2
:1017C000FEF746FF0420FEF75BFF2000FEF720FF38
:1017D0001C48FEF73DFF1420FEF752FF2000FEF7E5
:1017E00017FF1948FEF734FF1020FEF749FF2000CD
:1017F000FEF70EFF1548FEF72BFF0820FEF740FF0F
:101800002000FEF705FF1248FEF722FF2420FEF716
:1018100037FF2000FEF7FCFE0E48FEF719FF2820D8
:10182000FEF72EFF2000FEF7F3FE10BDB85C0008A7
:10183000C85C0008D05C0008E05C0008F05C0008B0
:10184000005D0008105D0008205D0008305D0008A4
:10185000405D0008505D000800000000000000002E
:1018600070B50025FFF75CFE03F082FF134C144EA9
:101870002000FFF705FB2000FFF76AFA2000FFF7C2
:10188000FFFA2000FFF764FA2000FFF7F9FA2000C2
:10189000FFF75EFA2000FFF7F3FA2000FFF758FA8F
:1018A00033780135002BE3D00648FEF7D1FEA800BF
:1018B000FEF7E6FE0448FEF7ABFE70BD540A0020BA
:1018C000100C0020605D0008705D00080000000042
:1018D000F0B54F464646C0B4144B83B09B69002414
:1018E0009D68FFF71DFE03F043FF114B002699464C
:1018F000104B114F98460135A4214B4600962A0003
:1019000049004046FFF704F83B780134002BF3D040
:101910000A48FEF79DFE2000FEF7B2FE0848FEF7DB
:1019200077FE03B00CBC90469946F0BDC00A00207B
:10193000B13D0008580C0020100C0020605D00082C
:10194000805D0008000000000000000000000000B2
:1019500070B50025FFF7E4FD03F00AFF134C144EA9
:101960002000FFF735F82000FEF7BAFF2000FFF750
:101970002FF82000FEF7B4FF2000FFF729F8200021
:10198000FEF7AEFF2000FFF723F82000FEF7A8FFC8
:1019900033780135002BE3D00648FEF759FEA80046
:1019A000FEF76EFE0448FEF733FE70BDC006002051
:1019B000100C0020605D00088C5D00080000000035
:1019C00070B5074CA3695B7F5B0708D40425054EFF
:1019D0003000FEF7FDFFA3695B7F1D42F8D070BDAC
:1019E000C00A0020C0060020000000000000000027
:1019F000F0B5474680B4FFF793FD03F0B9FE154BF1
:101A000000249846144F154E154D72B600233A0027
:101A100030000121FFF7E4FB00233A0011492800C0
:101A2000FFF7DEFB3000FFF79BFB2800FFF798FB7A
:101A300062B643461B780134002BE6D00A48FEF715
:101A400007FE6000FEF71CFE0848FEF7E1FD04BC3F
:101A50009046F0BD100C0020D1160008740900203B
:101A6000880A002010270000605D00089C5D0008C7
:101A7000002270B50025224C224B2460E360A36154
:101A8000636164601033A2602361E2612262FFF748
:101A900047FD03F06DFE1C4E72B600212000FEF7DC
:101AA000C7FF01212000FEF7C3FF02212000FEF73F
:101AB000BFFF03212000FEF7BBFF62B6012120001B
:101AC0004942FFF7F5FC012120004942FFF7F0FCF5
:101AD000012120004942FFF7EBFC0121200049428F
:101AE000FFF7E6FC33780135002BD5D00748FEF729
:101AF000AFFDA800FEF7C4FD0548FEF789FD70BDE7
:101B0000640A002060090020100C0020605D0008BD
:101B1000A85D0008000000000000000000000000B8
:101B2000F0B54F4646460023C0B485B00393FFF797
:101B3000F7FC2D4BA42798462C4B2D4C99469B69BE
:101B40007F009A6803AE43463900013A00962000B0
:101B5000FEF7DEFE4B469B69264D9A682860434699
:101B60003900013AE0190096FEF7D2FE4B469B6918
:101B700068609A68A4239B00E01839004346013A44
:101B80000096FEF7C5FE4B469B69A8609A68F6234F
:101B90009B00E01839004346013A0096FEF7B8FE74
:101BA0004B469B6939009A68A423DB00013AE86040
:101BB000E01800964346FEF7ABFE28610E48FFF79B
:101BC000A7FCFEF795FCFFF71BFA0C48FEF740FD5B
:101BD0000398FEF755FD0A48FEF71AFD05B00CBC48
:101BE00090469946F0BDC046111C0008C00A00206E
:101BF000580C0020280A002010270000605D000813
:101C0000B45D0008000000000000000000000000BB
:101C100070B504000425084EFEF7E2FDFEF7E0FD76
:101C2000FEF7DEFDFEF7DCFD236804332360B369B5
:101C30005B7F1D42F0D070BDC00A00200000000094
:101C4000F0B54746A42180B400273E4B3E4E98464F
:101C50009B693E4C9A6882B03300053249002000EF
:101C60000097FEF755FE4346394DA4212860200019
:101C70009B6949309A68490033000432FF3000976D
:101C8000FEF746FE43469B69A4219A68A4239B0065
:101C900068600332E018490033000097FEF738FE11
:101CA00043469B69A4219A68F6239B00A8600232F0
:101CB000E018490033000097FEF72AFE43469B696F
:101CC000A4219A68A423DB00E8600132E0184900EF
:101CD00033000097FEF71CFE00242861FFF720FC6C
:101CE00003F046FD1B4D1C4E72B600212800FFF785
:101CF000FFF9FEF7A5FD62B633780134002BF3D06F
:101D0000FEF7F6FB72B600212800FFF7F1F9FEF7A7
:101D100097FD62B6FFF774F91048FEF799FC2000B2
:101D2000FEF7AEFC0E48FEF793FC60000019400081
:101D3000FEF7A6FC0B48FEF76BFC02B004BC904615
:101D4000F0BDC046C00A0020C1190008580C002090
:101D5000280A0020C0060020100C0020605D00084A
:101D6000C05D0008B45D0008000000000000000035
:101D7000F0B54F464646C0B4154B83B09B6900246E
:101D80009D68FFF7CDFB03F0F3FC124B002699464C
:101D9000114B124F9846013DA4214B462A004900A1
:101DA00000964046FEF7B4FDFFF712F93B78013488
:101DB000002BF1D00A48FEF74BFC2000FEF760FC38
:101DC0000848FEF725FC03B00CBC90469946F0BDD0
:101DD000C00A0020B13D0008580C0020100C002063
:101DE000605D0008805D0008000000000000000049
:101DF000B24B0121F0B59A6A444600225F4656462E
:101E00004D464942F0B499629A62186919611A61A3
:101E1000D968AB48802401438020D960DA60D96951
:101E200040050143A748D96101686400214301606E
:101E3000C021186A89000140802087B0800081425B
:101E400003D08021490219621A6280209B4B000254
:101E50001A6A024207D18022196A9200114319625C
:101E60001A6A02431A62BC22944DD2036B69FC21A8
:101E7000134390226B610023A020D2050906536012
:101E8000916091498005D1609049914C51611362F4
:101E900053621060FC208F4A8000536090608E482F
:101EA000C026D06051611362536213608B4A3606BC
:101EB000536094608A4CC327D4608A4CBF0054613D
:101EC000A024E402136253621460874A0124536021
:101ED0009360D06051618548136253621360844AF5
:101EE00053609360D0605161136282495362136002
:101EF000814A02C280494A600A000C32CA600A6103
:101F00000A00080054328A614A620A621032CA61C9
:101F1000C2638264426410320264784A4B61C264D4
:101F200002000C728B62C96230310163416310217F
:101F30001065734A81634267724A8267C620724A9B
:101F4000800011580902090A31431150C02149008B
:101F5000894680214846090511501160E9696B4E98
:101F60002143E961B1682143B1608021684EC90510
:101F70008E6201267642CE628B614B63CB604B60F2
:101F80004C610C60D1590902090A884680214046FB
:101F9000090608438021D0514846090211501160BA
:101FA0005C495D4A086A02405C480A6202000721F7
:101FB0001C32C26102625A4A46620732594E8A4353
:101FC0003260594A00608A434060836083625749A7
:101FD00083660A60564A57499360116011001031B8
:101FE00011615161D36093614D214022435482635A
:101FF000C26601000E328454020054313032416511
:1020000001000261426182614C225831436683645F
:10201000006440648165C165845462B64649826942
:102020007830916100930122444BD821FEF770FC77
:10203000434B836172B6304B1B7A012B04D1802253
:10204000AB69D2011343AB6196212B4B09025C6F44
:102050009B6F18000393FEF7BBF83A4BE060636098
:102060000123A3602E23FF3323602F3BFF3B224A33
:1020700023620333137262B68020800003F010FBEA
:102080008020C00003F00CFB0024A42100942E4B00
:10209000402249002D48FEF73BFCA42100942C4B24
:1020A000402249002B48FEF733FC2B4B2B4C994622
:1020B0002B4B2C4E9A462C4B9B465AE0001002406C
:1020C000FFFFBFFF0070004054555565FFFF000043
:1020D00000000FF000040048555555550008004811
:1020E00055555005FFFC0000000C00485055555553
:1020F00000140048705900088C09002001030008F2
:1021000000380140006CDC0200E100E000580140B2
:10211000BF12000000ED00E0FFFF00FFC00A00203A
:10212000C0120020500A002000200020700900206A
:10213000080A00206103000820590008F103000884
:10214000B45E000840400000F1160008D0060020F0
:102150003117000818080020400A0020BC060020A3
:10216000280A00203C0A0020B80600209E48FFF7FD
:10217000CFF990230122DB051B691A42F6D09B4B55
:102180009B482360FEF744FA9A48FEF741FA9A48C2
:10219000FEF73EFA2A21994D2068013503689B68B5
:1021A000984729780029F7D19548FEF731FA2A2176
:1021B000944D2068013503689B6898472978002969
:1021C000F7D19148FEF724FA2A21904D2068013575
:1021D00003689B68984729780029F7D18C48FEF757
:1021E00017FA2A218B4D2068013503689B689847B0
:1021F00029780029F7D18848FEF70AFA2A21874D65
:102200002068013503689B68984729780029F7D131
:102210008348FEF7FDF92A21824D206801350368C5
:102220009B68984729780029F7D17F48FEF7F0F995
:102230002A217E4D2068013503689B6898472978DC
:102240000029F7D12A257A48FEF7E2F92900794FCB
:102250002068013703689B68984739780029F7D1CF
:102260000D007548FEF7D4F96148FEF7D1F9002258
:10227000724B734F1D70734B039208330493724B70
:102280000593724B039A0132039200229046002B71
:1022900000D181E000F0ACFF2D216D4D20680135AB
:1022A00003689B68984729780029F7D10398FEF7BF
:1022B000E7F920682E2103689B68984701239C4614
:1022C000E0444046FEF7DCF92021624D20680135EC
:1022D00003689B68984729780029F7D13B681D68F7
:1022E0002978002907D02068013503689B68984742
:1022F00029780029F7D15848FEF78AF9FA20C0005A
:10230000FFF706F94B463D6833600023534A1370CC
:102310005246136053609360D36013616B68002B67
:1023200000D09847EB689847AB68002B00D09847DF
:10233000FEF766FE494B1B78002B36D02D21484D09
:102340002068013503689B68984729780029F7D1F0
:102350005B461868FEF794F92021424D206801354C
:1023600003689B68984729780029F7D133684D4660
:102370004B4509D9206801356B1E197803689B68A5
:10238000984733689D42F5D33748FEF741F97B689B
:102390000437002B00D07DE7059F002F09D0049A59
:1023A0003B6802CA059104926CE73048FEF730F9A9
:1023B000EDE700F01DFF0E48FEF72AF946212C4DEF
:1023C0002068013503689B68984729780029F7D170
:1023D0001A4B1B78002B03D12648FEF719F9C5E6E6
:1023E0002548FEF715F9C1E6881300008C09002086
:1023F000D05D0008BC5E0008D85E0008D45D00080F
:10240000005F0008E85D0008085F0008FC5D000848
:10241000205F0008105E0008685F0008245E000866
:10242000705F0008385E00087C5F00084C5E0008A2
:10243000945F0008605E0008C45F000888090020FF
:10244000805A0008B05A0008705B0008C0590008A4
:10245000745E0008845E0008DC5E000889090020C4
:10246000885E0008A05E0008E05E0008E45E0008E8
:10247000A45E0008F05E0008F85E0008000000009E
:102480000022044B1B605B609A60034B1B605B6027
:102490009A6070476C0600205C0600200000000077
:1024A0000022024B1B605B609A6070476C06002044
:1024B0000022024B1B605B609A607047AC060020F4
:1024C00010B5FFF7F5FF10BD000000000000000090
:1024D00010B5FFF7EDFF10BD000000000000000088
:1024E0000122014B1A707047100C00200000000000
:1024F000F0B55F4656464D464446F0B48F4DA42194
:10250000AB698F4F9C6883B0631C9846A31C9946A7
:102510008C4B42469B468C4B4900009338005B46EF
:10252000FEF7F6F9894BA4219A46894E894B306013
:10253000490000934A4653468748FEF7E9F9706020
:102540008648FEF79DFCAB6901209968091B4B4248
:102550005941C9B2FEF734F8002806D003B03CBC9C
:1025600090469946A246AB46F0BDFA208000FEF7A1
:10257000CFFFAB69022099684346C91A4B425941C3
:10258000C9B2FEF71DF80028E8D17548FEF778FCBF
:10259000AB69032099684346C91A4B425941C9B2F5
:1025A000FEF70EF80028D9D1FA208000FEF7B0FF20
:1025B000AB69042099684B46C91A4B425941C9B2CC
:1025C000FDF7FEFF0028C9D16548FEF7C1FBAB69E6
:1025D000052099684346C91A4B425941C9B2FDF7D3
:1025E000EFFF0028BAD1FA208000FEF791FFAB6917
:1025F000062099684346C91A4B425941C9B2FDF7B2
:10260000DFFF0028AAD1FEF753FBAB6907209968CA
:10261000091B4B425941C9B2FDF7D2FF00289DD199
:10262000FEF7EEFCA4214F4B4246009349005B4667
:102630003800FEF76DF9A4214B4B30604900009340
:102640004A4653464448FEF763F970604348FEF734
:1026500017FCAB6908209968091B4B425941C9B264
:10266000FDF7AEFF002800D078E7FA208000FEF7E3
:102670004FFFAB69092099684346C91A4B4259413B
:10268000C9B2FDF79DFF002800D067E73448FEF788
:10269000F7FBAB690A2099684346C91A4B42594176
:1026A000C9B2FDF78DFF002800D057E7FA2080005F
:1026B000FEF72EFFAB690B2099684B46C91A4B42B7
:1026C0005941C9B2FDF77CFF002800D046E772B639
:1026D0002348FEF715FBFEF7B3F862B6AB690C2092
:1026E00099684346C91A4B425941C9B2FDF768FF80
:1026F000002800D032E7FA208000FEF709FFAB691E
:102700000D2099684346C91A4B425941C9B2FDF799
:1027100057FF002800D021E7FEF7CAFAAB690E2068
:102720009968091B4C426141C9B2FDF749FF002875
:1027300000D013E7FEF764FC10E7C046C00A002093
:10274000580C002071270008D06400089127000869
:10275000280A0020D4640008A00D00205C06002098
:102760006C060020D8640008DC640008000000004B
:10277000FA2010B54000FEF7CBFE044C2000FEF717
:102780007FFB2000FEF7E4FA10BDC0465C06002087
:1027900010B50548FEF7BCFE044C2000FEF770FBA8
:1027A0002000FEF7D5FA10BDDC0500006C06002005
:1027B000F0B54F464646314BC0B498469B6983B04E
:1027C0009D682F4B18009946FEF75AFBA4212D4F08
:1027D0002D4C2E4B6A1C009349003B002000FEF755
:1027E00097F82B4EA421306020002A4B4930AA1CB8
:1027F000009349003B00FF30FEF78AF8A423A42190
:102800009B007060E018244BEA1C009349003B00D9
:10281000FEF77EF8F623A4219B00B060E0181F4B62
:102820002A1D009349003B00FEF772F8A423A4215F
:10283000DB00F060E0181A4B49006A1D00933B0072
:10284000FEF766F830614846FEF782FAFEF7D8FBDD
:1028500043469B6901209968491B4B425941C9B2C3
:10286000FDF7AEFE002803D10E490230FDF778FED9
:1028700003B00CBC90469946F0BDC046C00A00208B
:102880006C06002091290008580C0020E464000820
:10289000280A0020D8640008DC640008D06400081E
:1028A000D4640008E064000800000000000000009C
:1028B000F0B54746294BA426984680B49B69284F1B
:1028C000284C9A68284B82B07600009331003B0078
:1028D000053A2000FEF71CF843469B69234D9A6891
:1028E000234B286031000093043A3B00A019FEF707
:1028F0000FF843469B6968609A68A4239B00E01820
:102900001C4B31000093033A3B00FEF701F84346AD
:102910009B69A8609A68F6239B00E018164B31006B
:102920000093023A3B00FDF7F3FF43469B69E860E2
:102930009A68A423DB00E018104B013A31000093A1
:102940003B00FDF7E5FF2861FEF75AFB0C4901202B
:10295000FDF706FE02B004BC9046F0BDC00A0020A0
:10296000B1290008580C0020E4640008280A00205F
:10297000D8640008DC640008D0640008D46400084F
:10298000E0640008000000000000000000000000FB
:1029900070B50500054C2000FEF772FA2878FDF7A7
:1029A00027FE2000FEF7D4F970BDC0466C0600205B
:1029B00010B50078FDF71CFE10BDC04600000000F9
:1029C00010B504000348FEF703F82078FDF710FE69
:1029D00010BDC046AC060020000000000000000052
:1029E00010B572B68368002B03DDFDF729FF62B6D0
:1029F00010BDFEF765FBF8E70000000000000000D6
:102A0000FA2010B54000FEF783FD72B60348FEF7CA
:102A100057FBFDF715FF62B610BDC046AC0600209F
:102A2000002310B586B003AC03946460A36072B653
:102A300000212000FEF75CFBFDF702FF62B672B6D4
:102A4000059B0120591E1943C90FFDF7B9FD002848
:102A500002D062B606B010BD62B6A4212D4B49006B
:102A60009B692D489A680094013A2C4BFDF750FF62
:102A70002B4B18602000FDF7ABFF72B6059B0220C0
:102A8000591E1943C90FFDF79BFD0028E1D162B61D
:102A900072B6A368002B35DDFDF7D2FE62B672B6C2
:102AA000059B0320D917C91AC90FFDF789FD002816
:102AB000CFD162B672B6059B0420591E4A424A41E4
:102AC000D1B2FDF77DFD0028C3D162B672B6A3680E
:102AD000002B1BDDFDF7B4FE62B672B6059B03202A
:102AE000D917C91AC90FFDF76BFD0028B1D162B61D
:102AF00072B6059B0520591E4A424A41D1B2FDF7E4
:102B00005FFDA6E72000FEF7DBFAC5E72000FEF731
:102B1000D7FADFE7C00A0020580C0020E12900089E
:102B2000280A002000000000000000000000000053
:102B30001D4BA4219B6910B59A68002382B0013215
:102B40004900009319481A4BFDF7E2FE194B186033
:102B500002F056FC184C01202368191B4A424A41D6
:102B6000D1B2FDF72DFD002801D002B010BDA16843
:102B700002304B425941C9B2FDF722FD0028F4D181
:102B800002F03EFC23680320191B4A424A41D1B29D
:102B9000FDF716FD0028E8D1A368043059425941D9
:102BA000C9B2FDF70DFDE0E7C00A0020580C002077
:102BB000C12B0008280A0020AC06002000000000FD
:102BC00010B5044C2000FDF703FF2000FDF788FE40
:102BD00010BDC046AC060020000000000000000050
:102BE00070B582B072B6484CA368013B00D589E04D
:102BF0000021A36062B60120FDF7E2FC002801D0AD
:102C000002B070BD23680230191B4A424A41D1B25A
:102C1000FDF7D6FC0028F3D1A16803304B4259419F
:102C2000C9B2FDF7CDFC0028EAD1A421374B4900F9
:102C30009B699A680090013A354B3648FDF768FE6B
:102C4000354B1860354802F0B3FB0500FEF7D8F9A4
:102C5000694269410420C9B2FDF7B2FC0028CFD116
:102C600023680530191B4A424A41D1B2FDF7A8FC3E
:102C70000028C5D1A16806304B425941C9B2FDF7C1
:102C80009FFC0028BCD1FEF74BFC72B68023DB050D
:102C90005E6A62B641252800FDF7AAFCFA204000D2
:102CA00002F086FB0130414241410720C9B2FDF7E5
:102CB00087FC0028A4D123680830191B4A424A41E6
:102CC000D1B2FDF77DFC00289AD1A16809304B42B2
:102CD0005941C9B2FDF774FC002800D090E70135D6
:102CE000EDB2462DD7D10E490A30FDF739FC002848
:102CF00000D085E70B4B0B30F2180B4BF118FDF7AA
:102D00000FFC7DE7012175E7AC060020C00A00201A
:102D1000012A0008580C0020280A0020881300000F
:102D2000E0640008D8090000C409000000000000A9
:102D3000F0B54F464646A421C0B44F4B4F4F98467E
:102D40009B694F4E9A684F4B83B005320093490000
:102D5000994630003B00FDF7DBFD43464A4DA42178
:102D6000286030009B6949309A68484B01320093D3
:102D700049003B00FF30FDF7CBFD43469B69A42192
:102D80009A68A4239B006860F018414B03320093BB
:102D900049003B00FDF7BCFD43469B69A4219A68AE
:102DA000F6239B00A860F0183A4B043200934900C8
:102DB0003B00FDF7ADFD43469B69A4219A68A4231F
:102DC000DB00E860F018344B4900023200933B000E
:102DD000FDF79EFD314C28612000FDF781FD2000AC
:102DE000FDF77EFD2000FDF77BFD2000FDF778FD5F
:102DF0002000FDF775FDFEF703F929490120FDF7D5
:102E0000AFFB002804D003B00CBC90469946F0BD3F
:102E100043469B69A4219A684B46053200934900BA
:102E20003B003000FDF774FD286072B602252600D5
:102E3000002702E0013D002D0ED0A3680133A360FE
:102E4000002BF7DC3068013D036833605E60FDF7FE
:102E5000DFFD0762002DF0D1FDF7F2FC62B6FEF750
:102E6000CFF872B6A168022001394A424A41D1B274
:102E7000FDF7A6FB62B6C6E7C00A0020C12900081C
:102E8000580C0020D4640008280A0020D0640008F0
:102E9000DC640008D8640008E4640008AC06002084
:102EA000E0640008000000000000000000000000D6
:102EB000F0B54F464646464BC0B4464E9846B369B9
:102EC000454D9A68A4235B009946444B83B02C007F
:102ED000009349464346043A2800FDF719FDB369BB
:102EE0003F4F9A68493C3F4BFF3C7860494600930E
:102EF000053A43462000FDF70BFDB36938609A6838
:102F0000F6239B00E818384B49460093013A4346A4
:102F1000FDF7FEFCB36938619A68A4239B00E818AA
:102F2000324B023A009349464346FDF7F1FCF86004
:102F300072B6B3699A689B239B00E9183033E1505D
:102F400041462933FF33E15029490433E1502949EF
:102F50000C33E15002213D3B033AFF3BE250143376
:102F6000E1540023244963541F316250B2220121ED
:102F70009200A350043AA350204AA154063AA35009
:102F8000A82372699B00E6500433E2502B0029000D
:102F90004B441361AD226D31FF3192007135A15068
:102FA000FF350432A55004327361A550BB6062B690
:102FB000B86872B6FDF72CFD62B6FEF721F810492D
:102FC0000120FDF7CDFA03B00CBC90469946F0BD48
:102FD000B1290008C00A0020A00D0020D864000814
:102FE000280A0020E4640008D4640008D0640008C3
:102FF000DC640008B1010008AD020000AE02000070
:10300000E064000800000000000000000000000074
:1030100070B5FEF785FA72B68025ED056C6A62B66A
:10302000FA208000FEF774FA1F4B0120E218033BE0
:10303000E118FDF775FA002800D070BD72B66C6A11
:1030400062B6FA208000FEF763FA174B0220E218FE
:10305000033BE118FDF764FA0028EED172B66C6A02
:1030600062B61248FEF754FA114B0320E2180F4BD8
:10307000E118FDF755FA0028DFD172B66C6A62B626
:10308000FA239B00E61872B6696A711A07D162B614
:10309000054B3100E2180420FDF742FACDE7083075
:1030A000FEF7DEF8F3E7C046EB0300001027000050
:1030B00013270000000000000000000000000000D6
:1030C000F8B5494EB3699C68651C2800FDF7C8FB3C
:1030D000011B4A424A410700D1B20120FDF770FAB4
:1030E000002800D0F8BDB36902309968491B4A42F4
:1030F0004A41D1B2FDF764FA0028F3D13800FDF758
:10310000AFFB291A4B424B410320D9B2FDF758FAC5
:103110000028E7D1B36904309968091B4A424A4143
:10312000D1B2FDF74DFA0028DCD172B6B2699368CE
:103130000233936062B6B369A71C99680530C91B56
:103140004A424A41D1B2FDF73BFA0028CAD12800D1
:10315000FDF786FB011B4B424B410620D9B2FDF720
:103160002FFA0028BED1B36907309968C91B4B42BA
:103170004B41D9B2FDF724FA0028B3D1B369083026
:10318000D96B491B4A424A41D1B2FDF719FA0028CE
:10319000A8D1E71C3800FDF763FB291A4B424B41CD
:1031A0000920D9B2FDF70CFA00289BD1B3690A3087
:1031B0009968C91B4A424A41D1B2FDF701FA002879
:1031C00000D08FE7B3690B30D96BC91B4A424A4123
:1031D000D1B2FDF7F5F9002800D083E772B6B369E4
:1031E0009C60DC6362B67DE7C00A0020000000003E
:1031F00070B54C24074D28682D210368013C9B685D
:103200009847002CF7D128680222036802491B68FE
:10321000984770BDBC060020D05700080000000091
:1032200072B672B672B662B67047C0460000000051
:103230007047C046000000000000000000000000D1
:103240000422074B9A60074A1B60DA609A615A6150
:1032500004321A61044A5B60DA6100221A62704724
:1032600000060020580C0020313200080000000049
:103270000021074B074A1B60DA609A615A610432E9
:103280001A61054A5B609960DA6119627047C0464D
:1032900024060020580C00203132000800000000F5
:1032A000A4210022024B49001A6059609A607047BD
:1032B000140C0020000000000000000000000000CE
:1032C000204BA4219B6970B59A68002382B001321B
:1032D000490000931C481D4BFDF71AFB00251C4BB1
:1032E00004001860FEF71CF902F042FA194E72B69B
:1032F00000212000FDF7CCFA20000021FDF7C8FADC
:1033000020000021FDF7C4FA00212000FDF7C0FADB
:1033100062B633780435002BE9D072B60121200063
:103320004942FDF7B5FA62B6FDF76AFE0A48FDF7B5
:103330008FF96800FDF7A4F90848FDF769F902B0B4
:1033400070BDC046C00A0020580C00206133000840
:10335000280A0020100C0020605D0008B45D000801
:10336000054B10B59C6972B60320FDF701FB236A7B
:10337000002BF9D062B610BDC00A0020000000008A
:1033800010B5FDF705FB046B72B62100FDF780FA5E
:1033900062B6002CF5D110BD000000000000000056
:1033A00070B500240500FEF7BBF802F0E1F9074E06
:1033B00001212800FDF794FB33780134002BF7D06E
:1033C00028000021FDF78CFB200070BD100C0020B0
:1033D000F0B54F464646C0B4A42600272E4B2F4CCE
:1033E00098469B6983B09A68760031000132009755
:1033F0002B4B2000FDF78CFA2A4B2B4D9946434668
:103400009B6928609A68A0194B463100023A0097E0
:10341000FDF77EFA43469B6968609A68A4239B0087
:10342000E01831004B46033A0097FDF771FA434626
:103430009B69A8609A68F6239B00E01831004B4610
:10344000043A0097FDF764FA43469B6931009A6895
:10345000A423DB00053AE860E01800974B46FDF72F
:1034600057FA28612868FFF79BFF0400FDF7C8FDA5
:103470000E48FDF7EDF82000FDF702F90C48FDF7C6
:10348000E7F86000FDF7FCF80A48FDF7C1F803B063
:103490000CBC90469946F0BDC00A0020580C002094
:1034A00081330008B13D0008280A0020605D000853
:1034B000F0640008B45D0008000000000000000097
:1034C000124BA4219B6910B59A68002382B0013287
:1034D000490000930E480F4BFDF71AFA0E4B186087
:1034E000FFF75EFF0400FDF78BFD0C48FDF7B0F819
:1034F0002000FDF7C5F80A48FDF7AAF86000FDF7BF
:10350000BFF80848FDF784F802B010BDC00A0020DB
:10351000580C002081330008280A0020605D000854
:10352000F0640008B45D0008000000000000000026
:10353000124BA4219B6910B59A68002382B0013A0E
:10354000490000930E480F4BFDF7E2F90E4B18604F
:10355000FFF726FF0400FDF753FD0C48FDF778F850
:103560002000FDF78DF80A48FDF772F86000FDF7BE
:1035700087F80848FDF74CF802B010BDC00A0020DB
:10358000580C002081330008280A0020605D0008E4
:10359000F0640008B45D00080000000000000000B6
:1035A00010B572B60120FDF7E3FF62B6012460405A
:1035B000C1B20120FDF704F8002800D010BD72B69A
:1035C0000230FDF7D5FF62B66040C1B20220FCF7C1
:1035D000F7FF0028F2D172B60430FDF7C9FF62B6DA
:1035E0006040C1B20320FCF7EBFF0028E6D172B6C1
:1035F0000830FDF7BDFF62B64440E1B20420FCF79D
:10360000DFFFDBE70000000000000000000000001A
:1036100010B586B0FDF7A4FFC30701D4FDF790FFF6
:1036200072B6FDF79DFFC30701D4FDF789FF62B6AF
:10363000EFF31083DB0700D472B6EFF31083DB07E0
:1036400000D472B662B672B6EFF31083DB0700D512
:1036500062B6EFF31083DB0700D562B60023049354
:1036600072B6049B01AC002B02D02000FDF778FD60
:1036700000230A4A01212000FDF7B2FD62B60A20AC
:10368000FDF746FF72B6049962B64B4259410120DC
:10369000C9B2FCF795FF06B010BDC046A1360008C0
:1036A00010B572B662B672B6FDF75AFFC30701D401
:1036B000FDF746FF62B610BD0000000000000000EC
:1036C000FA2210B5D20000210148FDF771FE10BDAD
:1036D00000060020000000000000000000000000C4
:1036E00070B582B072B67B4D00216B69AA699342B6
:1036F00000D1E5E00120FCF763FF00282ED162B67F
:10370000412401222100013452422800E4B2FDF795
:103710004FFE452CF5D172B6AB6802205942594193
:10372000C9B2FCF74DFF061E18D162B6042472B66A
:103730002800FDF7ADF962B6C0B2013CFCF758FFB6
:10374000002CF4D172B66B69AA69934200D1BCE037
:1037500031000320FCF734FF002802D062B602B02B
:1037600070BD62B65C490420FCF7FAFE0028F6D171
:1037700072B62800FDF78CF9033041424141052023
:10378000C9B2FCF71DFF0028E8D162B6534C0023F4
:10379000210008222800FDF7BBFD011F4B424B41D1
:1037A0000620D9B2FCF70CFF0028D8D172B6AB685E
:1037B000073059425941C9B2FCF702FF0028CDD168
:1037C00062B62600A421464B493E9B69FF3E9A689B
:1037D000490000900132434B3000FDF799F8424B0D
:1037E000186072B6EA682B69A9689B1A591A0439DD
:1037F0004A424A410820D1B2FCF7E2FE0028ADD18E
:1038000062B6FDF7FDFB72B60226EB682A692868EE
:10381000AB616B61D31AAB607642A84208D00368F3
:103820005D602B600662FDF7F3F82868A842F6D1C8
:1038300062B672B6EA682B69A9689B1A591A4A429D
:103840004A410920D1B2FCF7BBFE002800D085E731
:1038500062B60023022221002800FDF759FD811ED7
:103860004B424B410A20D9B2FCF7AAFE031E00D0FE
:1038700075E7210002222800FDF74AFD811E4B4218
:103880004B410B20D9B2FCF79BFE002800D066E725
:1038900072B6AB680C3059425941C9B2FCF790FE80
:1038A000011E00D05AE762B60A222800FDF780FD0B
:1038B000411C4B424B410D20D9B2FCF781FE4EE733
:1038C000A9684B1E9941C9B214E7AE68731E9E41A8
:1038D000F6B23DE700060020FC640008A00D0020C1
:1038E000C00A0020C1360008280A0020000000009D
:1038F000FA2110B5C9000248FDF7DAFD10BDC04637
:10390000240600200000000000000000000000006D
:1039100070B582B072B67F4D0120AB6859425941F3
:10392000C9B2FCF74DFE061E17D162B672B641242D
:10393000210001342800E4B2FDF77AF8452CF7D1D4
:1039400062B672B66B69AA69934200D1DDE03100BC
:103950000220FCF735FE002802D062B602B070BD2E
:1039600062B672B600212800FDF762F8011D4B42D5
:103970004B410320D9B2FCF723FE0028EDD162B6FB
:103980000424012128004942FDF792FD013CC0B208
:10399000FCF72EFE002CF4D172B6AB68042059421D
:1039A0005941C9B2FCF70CFE0028D6D162B65A497B
:1039B0000520FCF7D5FD0028D0D172B641242100A6
:1039C00001342800E4B2FDF733F8452CF7D162B694
:1039D000524E0023310008222800FDF721FD011F6F
:1039E0004B424B410620D9B2FCF7EAFD0028B5D185
:1039F00072B6AB68073059425941C9B2FCF7E0FDD5
:103A00000028AAD162B672B64124210001342800F0
:103A1000E4B2FDF70DF8452CF7D162B60023310072
:103A200002222800FDF7FCFC811E4B424B4108207E
:103A3000D9B2FCF7C5FD002800D08FE70023310084
:103A400002222800FDF7ECFC811E4B424B4109206D
:103A5000D9B2FCF7B5FD002800D07FE772B6AB689D
:103A60000A3059425941C9B2FCF7AAFD041E00D0E0
:103A700073E762B672B600212800FCF7D9FFAC608C
:103A80000224EB682868AB616B616442A84208D0ED
:103A900003685D602B600462FCF7BAFF2868A842E7
:103AA000F6D162B672B6AB680B2059425941C9B221
:103AB000FCF786FD002800D04FE762B6A421184B22
:103AC00049009B699A6800900132164B1648FCF732
:103AD0001FFF164B186072B6AB680C205942594153
:103AE000C9B2FCF76DFD002800D036E762B6FDF7DD
:103AF00087FA0A212800FDF7DBFC411C4B424B41B1
:103B00000D20D9B2FCF75CFD28E7AE68731E9E411C
:103B1000F6B21CE724060020FC640008A00D00207B
:103B2000C00A0020F1380008580C0020280A0020A4
:103B3000F8B5070072B60E4E3069837F0133837784
:103B400062B6002500E02000C31B5A4253411D43CA
:103B500072B60469B44209D0A37F0133A37762B679
:103B6000FDF706FA002CEED12800F8BD0024F6E798
:103B7000C00A00200000000000000000000000005B
:103B8000454B10B59B6945499868013801F090FB99
:103B9000817F040001394B4259410120C9B2FCF731
:103BA0000FFD002800D010BD72B6A37F0133A377AC
:103BB00062B6A17F023002394B425941C9B2FCF7CB
:103BC000FFFC0028EFD12000FDF7D2F9A17F0320F0
:103BD00001394B425941C9B2FCF7F2FC0028E2D14D
:103BE0002000FFF7A5FF01000420FCF7E9FC0028F6
:103BF000D9D12000FFF79CFF01000520FCF7E0FC75
:103C00000028D0D12000FDF7B3F9A17F06204B4258
:103C10005941C9B2FCF7D4FC0028C4D1217F073038
:103C20004B425941C9B2FCF7CBFC0028BBD1200064
:103C3000FFF77EFF01000820FCF7C2FC0028B2D18C
:103C40002000FFF775FF01000920FCF7B9FC0028F0
:103C5000A9D1F530FF30FDF75BFC217F0A200F3939
:103C60004B425941C9B2FCF7ABFC00289BD1200064
:103C7000FFF75EFF01000B20FCF7A2FC002800D03C
:103C800091E72000FFF754FF01214140C9B20C2009
:103C9000FCF796FC87E7C046C00A0020D464000801
:103CA00010B500F08DF810BD00000000000000000D
:103CB000334B70B59B69334A9E680023324C3349BD
:103CC00072B620681060226062B60433102B01D0F7
:103CD000CA58F5E72E49701E01F02AFB2D4D2E49DA
:103CE0002860B01E01F024FB2C496860F01E01F032
:103CF0001FFB2B49A860301F01F01AFB2949E8601F
:103D0000701F01F015FB2B682861002B11D06B6828
:103D1000002B0ED0AB68002B0BD0EB68002B08D02B
:103D2000414241410120C9B2FCF74AFC002806D0BB
:103D300070BD00210120FCF743FC0028F8D1FDF7FD
:103D40005FF919490220FCF70BFC0028F0D104258B
:103D50002000FCF725FD411E8841C1B20320FCF77D
:103D60002FFC0028E4D1013D002DF1D12000FCF70B
:103D700017FD414241410420C9B2FCF721FCD7E7BD
:103D8000C00A0020580C0020140C0020B064000869
:103D9000D4640008280A0020D0640008DC6400080D
:103DA000D8640008E4640008FC6400080000000017
:103DB00010B5FDF7B5F910BD0000000000000000CF
:103DC000CC200022064B0749C00099600A60486079
:103DD000190010311A60DA60196159619A617047EF
:103DE000380C0020580C00200000000000000000EB
:103DF00000207047000000000000000000000000EC
:103E0000A4210022024B49001A6059609A60704751
:103E10004806002000000000000000000000000034
:103E2000CC200022064B0749C00099600A60486018
:103E3000190010311A60DA60196159619A6170478E
:103E4000A00A0020580C0020000000000000000024
:103E5000F0B52F4B2F4E9B6983B09D6869463000AB
:103E6000FDF716F82C49681E01F022FA2B4C2C495C
:103E70002060A81E01F01CFA01A960603000FDF767
:103E800007F801993000FDF7D3F826490700E81E2E
:103E900001F00EFAA0603800FDF722F82368002B2D
:103EA0002CD063680021002B02D0A368002B27D000
:103EB0000120FCF785FB002801D003B0F0BDFDF721
:103EC0009FF819490220FCF74BFB0028F5D101A906
:103ED0003000FCF7DDFF0138414241410320C9B207
:103EE000FCF76EFB0028E8D1019B009A0430991A78
:103EF0004A424A41D1B2FCF763FBDEE70021D7E733
:103F0000E368002BD4D1236959425941C9B2CFE7A4
:103F1000C00A0020380C0020D4640008280A0020C1
:103F2000D0640008DC640008106500080000000090
:103F3000F0B583B069460020FCF7AAFF10210020ED
:103F4000FDF776F801004B1E99410400C9B201202B
:103F5000FCF736FB002801D003B0F0BD2000FCF7D1
:103F6000BFFF82490020FDF763F841424141022032
:103F7000C9B2FCF725FB0028EED17D4C6946200034
:103F8000FCF786FF10212000FDF752F810210700F2
:103F90002000FDF74DF8102106002000FDF748F83D
:103FA00005003800FCF79CFF3000FCF799FF280063
:103FB000FCF796FF01A92000FCF76AFF0138414297
:103FC00041410320C9B2FCF7FBFA0028C4D11021FB
:103FD0002000FDF72DF8102105002000FDF728F83E
:103FE000060010212000FDF723F8FCF779FF3000D0
:103FF000FCF776FF2800FCF773FF01A92000FCF70F
:1040000047FF0138414241410420C9B2FCF7D8FAC8
:104010000028A1D111212000FDF70AF81021050088
:104020002000FDF705F806002800FCF759FF01A95C
:104030002000FCF72DFF0238414241410520C9B262
:10404000FCF7BEFA002800D086E710212000FCF71C
:10405000EFFF01A905002000FCF71AFF012101284C
:1040600007D001A92000FCF713FF811E48424141FF
:10407000C9B20620FCF7A4FA002800D06CE7300093
:10408000FCF72EFF2800FCF72BFF01A92000FCF70E
:10409000FFFE411E484241410720C9B2FCF790FA99
:1040A000002800D058E710212000FCF7C1FF1021A4
:1040B00006002000FCF7BCFF05003000FCF710FFF5
:1040C00001A92000FCF7E4FE811E4842414108207E
:1040D000C9B2FCF775FA002800D03DE72021200086
:1040E000FCF7A6FFFCF7FCFE2800FCF7F9FE01A98F
:1040F0002000FCF7CDFE411E484241410920C9B2D3
:10410000FCF75EFA002800D026E701A92000FCF7A2
:10411000BFFE01992000FCF78BFF01A905002000DC
:10412000FCF7B6FE414241410A20C9B2FCF748FA09
:10413000002800D010E72800FCF7D2FE01A92000DB
:10414000FCF7A6FE411E484241410B20C9B2FCF7D4
:1041500037FA002800D0FFE6019B009A0C30991A2C
:104160004B425941C9B2FCF72BFAF5E600FFFFFFBD
:10417000A00A002000000000000000000000000075
:1041800010B5FEF715FC10BD000000000000000097
:1041900070B52F4E052233002E4C72B62168236075
:1041A000196062B66168013A8C466344002AF4D112
:1041B00005252000FCF7F4FA411E8841C1B2012018
:1041C000FCF7FEF9002833D1013D002DF1D120008C
:1041D000FCF7E6FA414241410220C9B2FCF7F0F98E
:1041E000002825D133001C4A00E0535972B62168DB
:1041F0001960236062B60435142DF6D10525200020
:10420000FCF7CEFA411E8841C1B20320FCF7D8F971
:1042100000280DD1013D002DF1D12000FCF7C0FA9E
:10422000414241410420C9B2FCF7CAF9002800D03C
:1042300070BD10236360094B20002560A360FCF76C
:10424000AFFA414241410520C9B2FCF7B9F9EFE7A5
:10425000580C002048060020B0640008F13D00081A
:1042600070B5484CA26972B6536B002B07D162B689
:1042700001210120FCF7A4F900280ED070BD59429D
:1042800019408B430800536362B64142414101200B
:10429000C9B2FCF795F90028F0D1A36972B65A6B40
:1042A000002A5FD0586362B601000220FCF788F94B
:1042B0000028E3D1A36972B65A6B013255D062B6B9
:1042C000013001000320FCF77BF90028D6D1A56955
:1042D00072B66B6B002B08D1013B2B620A210A30AE
:1042E000FCF7BEFF002843DB6B6B59420A001A4003
:1042F00093436B6362B651425141C9B20420FCF74B
:104300005FF90028BAD1A56972B66B6B002B08D192
:10431000013B2B620A210A30FCF7A2FF00282ADBAE
:104320006B6B00226A6362B659425941C9B20520DB
:10433000FCF746F9051EA1D1A46972B6636B01337F
:1043400008D001235B4223620A210B20FCF788FF7F
:10435000002813DB0023636362B629000620FCF704
:104360002FF98BE762B601309EE7586362B6A8E783
:1043700062B60121C2E762B60121D8E762B6013513
:10438000EBE7C046C00A002000000000000000006B
:1043900010B500F07DFA10BD000000000000000024
:1043A00010B500F075FA10BD00000000000000001C
:1043B000F0B5314C8DB0246072B63049236807AD3A
:1043C00007938B6900226B600123AB60023B256081
:1043D000EA602B6162B672B6896920680191039127
:1043E0000221029002A8206004910592069362B611
:1043F00023680120191B4B1E9941C9B2FCF7E0F854
:10440000002801D00DB0F0BD29002000FCF7D8F93C
:1044100023680220191B4B1E9941C9B2FCF7D0F842
:104420000028EFD1200002A9FCF7CAF92368032075
:10443000191B4B424B41D9B2FCF7C2F80028E1D11D
:104440000725002401260E4F2B00E3401E4204D115
:104450002B000134E3401E42FAD03300A3409D43B9
:10446000A3002000FB5898470134002DECD10549EA
:104470000420FCF775F8C5E754060020C00A0020A8
:10448000206500081465000800000000000000001E
:10449000F0B55F4656464D464446F0B48FB072B60E
:1044A0000723A84CA269516B0B43536362B601F01A
:1044B00007F80138414241410120C9B2FCF780F8B8
:1044C000002806D00FB03CBC90469946A246AB46A9
:1044D000F0BD00F0F5FF0238414241410220C9B26F
:1044E000FCF76EF80028EDD100F0EAFF011F4B4207
:1044F0004B410320D9B2FCF763F80028E2D100F069
:10450000CFFF414241410420C9B2FCF759F80028CD
:10451000D8D1FDF705F872B68023DB0599465F6AAE
:1045200062B6894AA4219046A369884E9A684900D8
:10453000013A009330004346FCF7EAF9844D2860C5
:1045400000F0BEFF3900834BF5318246FA18FF3187
:104550000520FBF7E5FF0028B4D1514601394A4256
:104560004A410630D1B2FCF72BF80028AAD100F05E
:1045700097FF414241410720C9B2FCF721F80028CA
:10458000A0D1FCF73DFD72B60523A269516B0B4328
:10459000536362B600F0ACFF411F4B424B41082011
:1045A000D9B2FCF70DF8002800D08BE700F078FFB7
:1045B000414241410920C9B2FCF702F8002800D06D
:1045C00080E7FCF7ADFF72B64B465B6A994662B670
:1045D000A421A36949009A683000013A0093434638
:1045E000FCF796F9286000F083FF4946594AF531F7
:1045F00007004A44FF310A20FBF792FF002800D051
:1046000060E7791E4B424B410B30D9B2FBF7D8FF24
:10461000002800D056E700F043FF414241410C2002
:10462000C9B2FBF7CDFF8346002800D04AE7FCF76C
:10463000E7FC494B494F98461B603F6072B609AB97
:104640009A4643461B685246099343461A605346AE
:10465000A2695A6052460123936053465A46DA6073
:10466000012352465B42136162B672B604AA9146B8
:104670003A68A16904924A4651603A604946042268
:104680008A604A4659461361D16062B6FCF748FF1A
:1046900072B68023DB055B6A9B4662B6FA23A421CF
:1046A0005B005B440393A36949009A682C4B013A71
:1046B000009330002B4BFCF72BF9A469286072B6ED
:1046C000636B052219001140914204D022620B2035
:1046D000FCF74EF9636B05229343636362B61D4A90
:1046E00003995A440D20FBF71BFF002800D0E9E690
:1046F00000F0D6FE414241410E20C9B2FBF760FFF7
:10470000002800D0DEE6FCF77BFC51464046FCF773
:1047100057F849463800FCF753F843461A680F200B
:10472000D11A4A424A41D1B2FBF74AFF002800D0D1
:10473000C8E63B681030D91B4B424B41D9B2FBF75E
:104740003FFFBFE6C00A0020B1470008580C002018
:10475000280A0020260200005406002058060020E7
:10476000D464000871470008000000000000000049
:1047700010B572B600210948FCF7F2F9FCF760F8B1
:1047800062B6FA204000FCF7C3FE72B6002104486E
:10479000FCF7E6F9FCF754F862B610BD54060020A9
:1047A000580600200000000000000000000000008B
:1047B00010B50400FA204000FCF7AAFE72B60121F1
:1047C0002000FCF7ADF9FCF73BF862B610BDC0461F
:1047D00010B54320FBF70CFF10BDC04600000000E1
:1047E00010B54220FBF704FF10BDC04600000000DA
:1047F00010B54120FBF7FCFE10BDC04600000000D4
:10480000094B0A4A1A60DA609A6014325A601A0038
:104810001C32DA611A6205225A621A0010321A61D9
:104820005A6100229A6170477C060020580C0020D3
:104830000022064B1B605B60054B1B605B609A604F
:10484000044B1B605B609A607047C046A406002062
:104850006C0600205C060020000000000000000044
:104860000022044B1B605B60034B1B605B609A6023
:104870007047C046A40600206C060020000000001F
:1048800010B5FFF7EDFF10BD0000000000000000B4
:1048900010B500F005FE10BD000000000000000093
:1048A00070B582B072B6174D01206B6A591F4A422B
:1048B0004A41D1B2FBF784FE002800D0F9E162B68C
:1048C000422401212000494200F02AFE4142414198
:1048D0000220C9B2FBF774FE002810D10134462C27
:1048E000EFD101214130494200F05AFE414241419D
:1048F0000320C9B2FBF764FE002800D1DBE102B05F
:1049000070BDC0467C060020D54E0C203100FBF760
:1049100027FE0028F3D101214730494200F000FE74
:10492000414241410D20C9B2FBF74AFE0028E6D1C1
:10493000012101A8494200F073FE414241410E208D
:10494000C9B2FBF73DFE0028D9D12B68AA680F3009
:10495000991A4A424A41D1B2FBF732FE0028CED121
:104960002B68EA681030991A4A424A41D1B2FBF7E3
:1049700027FE0028C3D1012101A800F051FE411CEF
:104980004B424B411120D9B2FBF71AFE0028B6D199
:1049900072B601A800F064FE62B6411C4B424B4166
:1049A0001220D9B2FBF70CFE0028A8D172B66B6AB0
:1049B0001330591F4A424A41D1B2FBF701FE002889
:1049C00000D076E162B672B6A96914204B42594113
:1049D000C9B2FBF7F5FD002800D06AE162B672B6F5
:1049E000EB68AA681520991A4A424A41D1B2FBF7EE
:1049F000E7FD002800D05CE162B672B6412000F00D
:104A0000AFFD414241411620C9B2FBF7D9FD002854
:104A100000D074E7423000F0A3FD4142414117202D
:104A2000C9B2FBF7CDFD002800D068E7433000F0A5
:104A300097FD414241411820C9B2FBF7C1FD002852
:104A400000D05CE7443000F08BFD41424141192029
:104A5000C9B2FBF7B5FD002800D050E7453000F0A3
:104A60007FFD62B6414241411A20C9B2FBF7A8FD61
:104A7000002800D043E7EB68AA681B30991A4A4225
:104A80004A41D1B2FBF79CFD002800D037E705244E
:104A900072B601A800F0E4FD62B6414241411C201B
:104AA000C9B2FBF78DFD002800D028E7019B013C2F
:104AB000D8B2FBF79DFD002CEAD131001D20FBF799
:104AC0004FFD002800D01AE772B66B6A1E30591FDE
:104AD0004A424A41D1B2FBF773FD002800D0E8E01A
:104AE00062B672B6A9691F204B425941C9B2FBF7A1
:104AF00067FD002800D0DCE062B6EB68AA682020E1
:104B0000991A4A424A41D1B2FBF75AFD002800D017
:104B1000F5E672B6453000F063FD41424141212087
:104B2000C9B2FBF74DFD002800D0E8E6443000F0A4
:104B300057FD414241412220C9B2FBF741FD002807
:104B400000D0DCE6433000F04BFD414241412320E0
:104B5000C9B2FBF735FD002800D0D0E6423000F0A6
:104B60003FFD414241412420C9B2FBF729FD002805
:104B700000D0C4E6413000F033FD62B6414241410D
:104B80002520C9B2FBF71CFD002800D0B7E6EB6872
:104B9000AA682630991A4A424A41D1B2FBF710FD61
:104BA000002800D0ABE6052472B601A800F058FD3D
:104BB00062B6414241412720C9B2FBF701FD0028FE
:104BC00000D09CE6019B013CD8B2FBF711FD002C04
:104BD000EAD131002820FBF7C3FC002800D08EE684
:104BE00072B66B6A2930591F4A424A41D1B2FBF76B
:104BF000E7FC00285DD162B672B6A9692A204B4253
:104C00005941C9B2FBF7DCFC002852D162B6EB680F
:104C1000AA682B20991A4A424A41D1B2FBF7D0FC2C
:104C2000002800D06BE672B629686B68A960E9605D
:104C3000591A89100B48FCF75BFA21000A48FCF767
:104C400057FAFBF7FDFD62B672B66B6A2C20591F4E
:104C50004A424A41D1B2FBF7B3FC002829D105E012
:104C6000E0640008980600208C06002062B672B648
:104C7000A9692D204B425941C9B2FBF7A1FC00287C
:104C800017D162B672B62B68AA682E20991A4A42CA
:104C90004A41D1B2FBF794FC00280AD162B672B641
:104CA0002B68E9682F20591A4A424A41D1B2FBF7D2
:104CB00087FC62B623E60121583000F031FC013058
:104CC000414241410420C9B2FBF77AFC002800D0E0
:104CD00015E672B6583000F043FC62B6013041422E
:104CE00041410520C9B2FBF76BFC002800D006E665
:104CF0000121583000F054FC411C4B424B4106202E
:104D0000D9B2FBF75DFC002800D0F8E572B6583048
:104D100000F066FC62B6411C4B424B410720D9B201
:104D2000FBF74EFC002800D0E9E572B6696A08304E
:104D30004B425941C9B2FBF743FC0028B9D162B6D6
:104D400072B6AB690920591F4A424A41D1B2FBF7FA
:104D500037FC0028ADD162B672B6EB68AA680A20AB
:104D6000991A4A424A41D1B2FBF72AFC0028A0D145
:104D700062B6052407E0019B013CD8B2FBF738FC82
:104D8000002C00D1C0E5012101A8494200F048FCF7
:104D9000414241410B20C9B2FBF712FC0028EAD086
:104DA000ADE5C0460000000000000000000000006B
:104DB00010B504004121FBF793FE42212000FBF7D0
:104DC0008FFE43212000FBF78BFE10BD000000008A
:104DD000A42110B5194B82B09B6949009A68184804
:104DE00001320093174BFBF793FD174B1860FBF74D
:104DF000CFFD046B72B62100FBF74AFD62B6E0B24C
:104E0000FBF7F6FBFBF7C4FD046B72B62100FBF762
:104E10003FFD62B6E0B2FBF7EBFBFBF7B9FD046BBD
:104E200072B62100FBF734FD62B6E0B2FBF7E0FB9F
:104E300006490120FBF794FB02B010BDC00A002018
:104E4000580C0020B14D0008280A00201465000805
:104E5000F0B5A427174B184C9B6983B09D68174B7E
:104E60007F006A1C00933900154B2000FBF750FDB2
:104E7000144E154B3060AA1C00933900E019134BF7
:104E8000FBF746FDA4239B007060E018104BEA1C62
:104E9000390000930F4BFBF73BFDB06000F0E0FAE8
:104EA00000F0DEFAFCF7ACF80B490120FBF758FBE9
:104EB00003B0F0BDC00A0020580C0020D4640008E4
:104EC000014F0008280A0020DC640008914F000808
:104ED000D0640008E14E00081465000800000000DE
:104EE00070B50500054C2000FBF7CAFF2878FBF7DA
:104EF0007FFB2000FBF72CFF70BDC0465C06002046
:104F0000F0B547461D4D80B480462800FBF7B8FF3A
:104F10001B4E3000FBF7B4FF72B61A4CA3699F6BAF
:104F20003800FBF7EDFE1849A2690B00116204E09E
:104F3000986884469068844502D31B688B42F7D1F9
:104F400059681360516007200A605A60FBF710FD32
:104F5000A3691B6A013302D03800FBF729FF62B650
:104F600043461878FBF744FB3000FBF7F1FE2800BE
:104F7000FBF7EEFE04BC9046F0BDC0465C06002088
:104F80006C060020C00A0020A406002000000000DB
:104F9000F8B5154D07002800FBF772FF72B6134BEA
:104FA0009C69A66B3000FBF7ABFE114A226213002E
:104FB00003E09968A068814202D31B689342F8D14C
:104FC0005A6823606260072014605C60FBF7D0FCC5
:104FD0003000FBF7EDFE62B63878FBF709FB2800DE
:104FE000FBF7B6FEF8BDC0466C060020C00A0020E4
:104FF000A4060020000000000000000000000000E7
:10500000A421F0B52D4B2E4F9B692E4C9D682E4B45
:1050100083B06A1C009349003B002000FBF778FC3A
:105020002A4EA42130602000294B4930AA1C00934D
:1050300049003B00FF30FBF76BFCA423A4219B003D
:105040007060E018234BEA1C009349003B00FBF71B
:105050005FFCF623A4219B00B060E0181E4B2A1DC4
:10506000009349003B00FBF753FCA423A421DB0081
:10507000F060E018194B6A1D009349003B00FBF7F4
:1050800047FC306172B60225154C6D422068A04283
:1050900008D0036823605C60FBF7BAFC05622068F7
:1050A000A042F6D1FBF7CCFB62B6FBF7A9FF0D4996
:1050B0000120FBF755FA03B0F0BDC046C00A00203E
:1050C000914F0008580C0020E4640008280A0020D2
:1050D000D8640008DC640008D0640008D4640008C8
:1050E000A4060020E06400080000000000000000AA
:1050F000F0B547462A4B80B49B69A4279D68294B8D
:10510000294C9846294B82B07F006A1C00933900D5
:1051100043462000FBF7FCFB254E264B3060AA1CC3
:10512000009339004346E019FBF7F2FBA4239B00F0
:105130007060E018204BEA1C009339004346FBF7EF
:10514000E7FBF6239B00B060E0181C4B2A1D009380
:1051500039004346FBF7DCFBA423DB00F060E018DA
:10516000174B6A1D009339004346FBF7D1FB3061B2
:1051700072B600F085F900F083F900F081F900F0D3
:105180007FF900F07DF9FBF75BFB62B6FBF738FFB8
:105190000C490120FBF7E4F902B004BC9046F0BDD5
:1051A000C00A0020914F0008580C0020E464000859
:1051B000280A0020D8640008DC640008D0640008D5
:1051C000D4640008E0640008000000000000000053
:1051D00070B5314DAB699E6872B6304C0021A36842
:1051E000002B4CD062B60120FBF7EAF9002800D072
:1051F00070BD72B6A368002B48D0012062B60100D2
:105200000220FBF7DDF90028F2D172B62000FBF78F
:1052100077FD62B623680320191B4A424A41D1B286
:10522000FBF7CEF90028E3D1A16804304B42594185
:10523000C9B2FBF7C5F90028DAD1AB690530996826
:10524000891B4B424B41D9B2FBF7BAF90028CFD1A9
:105250002000FBF715FEFBF72BFD23680620191B2A
:105260004A424A41D1B2FBF7ABF90028C0D1A3684A
:10527000073059425941C9B2FBF7A2F9B8E7AB6907
:1052800001319A6BA360E2609C63ABE7AB699A6BF8
:10529000A360E2609C63B1E7C00A00206C060020B6
:1052A00010B5FDF7FDF810BD000000000000000083
:1052B00070B50E00A421050049001648FBF7B8FEA2
:1052C000041E24D072B60300134A2533FF33C36093
:1052D0001A61124A5E611A620223037700230122D7
:1052E0008363436383610E4B856059690361416148
:1052F000C563827708615861030024334362043335
:105300008362C36242770021FBF7C2FA62B62000D3
:1053100070BDC046380C002081410008B101000872
:10532000C00A002000000000000000000000000093
:10533000F8B5184D060028000F00FBF731FA041EDF
:1053400025D072B66B68144A243BC318C3601A6137
:10535000124A5F611A6200230121022283634363C0
:1053600083610F4B817759690361416186600277E0
:10537000C6630861586103002433436204338362C7
:10538000C362427705640021FBF782FA62B620000F
:10539000F8BDC046140C002081410008B10100088E
:1053A000C00A002000000000000000000000000013
:1053B00010B5010072B60D4B00209C68621E9A6009
:1053C000002A01DB62B610BD00290BD0084A5868DC
:1053D000926950601360136202605A600520FBF707
:1053E0003FFFEFE79C600138ECE7C046AC060020C9
:1053F000C00A0020000000000000000000000000C3
:1054000070B572B6124CA3680133A360002B15DD92
:10541000013BA360002B04DBFBF712FA002062B60D
:1054200070BD0C4B05209D6963682C606B601D602E
:1054300065602C62FBF79CFA286AF0E72068036835
:1054400023605C60FBF7E4FA00230362A368DFE7F4
:10545000AC060020C00A0020000000000000000090
:1054600010B572B6054B1868984205D00268002145
:105470001A605360FBF70CFA62B610BDA406002058
:10548000064B10B51868984206D0026853601A603F
:1054900000230362FBF7BCFA10BDC046A40600203F
:1054A00072B60022024B9B69586B5A6362B6704712
:1054B000C00A002000000000000000000000000002
:1054C000094B10B59C6972B6636B002B05D1013B8B
:1054D00023620A20FBF74CFA636B5842184083435F
:1054E000636362B610BDC046C00A00200000000021
:1054F000094B10B59C6972B6606B002806D1012378
:105500005B420A302362FBF733FA606B636B8343C1
:10551000636362B610BDC046C00A002000000000F0
:1055200070B5060072B60D4C20001C30FBF7B8FEBB
:10553000051E02D062B6280070BDA268131DA360CC
:1055400016606268934201D32368A3602000103084
:10555000FBF7B6FDFBF774F9ECE7C0467C060020CC
:105560000C4B10B55A6A002A11DD9968013A5A624B
:105570000A1D9A60086059688A4205D210331800E3
:10558000FBF79EFD002010BD1A689A60F6E7012027
:105590004042F8E77C060020000000000000000008
:1055A00070B5060072B60D4C20001C30FBF778FE7B
:1055B000051E02D062B6280070BDE3682268043B75
:1055C000E360934202D26368043BE36020001E6004
:1055D0001030FBF775FDFBF733F9EBE77C06002095
:1055E0000D4B10B55A6A002A12DD013A5A62DA6888
:1055F0001968043ADA608A4206D310331060180042
:10560000FBF75EFD002010BD5A68043ADA60F4E74B
:1056100001204042F7E7C0467C0600200000000061
:1056200070B5060072B60D4C20001030FBF738FE46
:1056300005002000002D0ED1E268131D1268E36002
:1056400032606268934201D32368E3601C30FBF749
:1056500037FDFBF7F5F862B6280070BD7C06002028
:105660000C4B10B59A69002A11DDD968013A9A618C
:105670000A1D0968DA60016059688A4201D31A6814
:10568000DA601C331800FBF71BFD002001E001204D
:10569000404210BD7C060020000000000000000019
:1056A0000723F0B54D46444656465F4603229946C9
:1056B000083398469023F0B49446013A83B0002111
:1056C00002240125DB05924608E01A6AB243019ED6
:1056D00016431E6240082DD0A40001310542F9D0C6
:1056E0004A462E0047460A4092009640974001964F
:1056F0003E002F008F405A68BA4367465A609A6846
:1057000093464A009740FA435F4617409F60DF6820
:105710001740DF60022C14D01F683A4022431A6001
:105720000729D2D95A6A4008B243019E16435E62E5
:105730000028D1D103B03CBC90469946A246AB4666
:10574000F0BD07290AD81F6AB743019E3E431E6277
:105750001E683240564632431A60BBE75F6AB74361
:10576000019E3E435E62F3E700000000000000007F
:105770000022094B10B51A7072B6084CE368002B72
:1057800002D02000FBF7ECFC0023054A054920006D
:10579000FBF726FD62B610BD100C0020200C002087
:1057A000E1240008102700000000000000000000B5
:1057B000D2030008B2030008B2030008D6030008B1
:1057C000A8030008A0030008B2030008A80300080B
:1057D0000D0A0000000000000000000000000000B2
:1057E000E8650008C0120020C0120020C01200208E
:1057F000E865000800000000000000000000000054
:10580000E865000800000000000000000000000043
:10581000E865000800000000000000000000000033
:10582000E865000800000000000000000000000023
:10583000E865000800000000000000000000000013
:10584000E865000800000000000000000000000003
:10585000E8650008000000000000000000000000F3
:105860004C6300088124000800000000F1240008B7
:105870003C630008A152000800000000D15100085C
:10588000246300086148000800000000F15000088F
:105890000C63000881480008000000000150000867
:1058A000F86200083148000800000000514E00086E
:1058B000C0580008000000000000000000000000C8
:1058C000E86200080000000000000000D14D000860
:1058D000205A0008305A0008405A0008505A000860
:1058E000605A0008705A0008E0590008905A0008F1
:1058F000A05A0008F059000810590008005A000882
:10590000105A000800000000000000000000000025
:1059100018600008C11600080000000051190008B6
:105920006D61696E00164418040444080C101418C4
:10593000001C1D1E00000000000000000000000010
:10594000606400080000000000000000A1350008AD
:1059500088620008A143000800000000914400088C
:10596000F05A0008005B0008105B0008000000000F
:10597000A1130008A1140008111400080115000863
:1059800001140008F1140008911300089114000894
:10599000E4630008B124000800000000312D000875
:1059A000D0630008D124000800000000E12B0008AB
:1059B000B0630008C124000800000000312B00087B
:1059C000906400080000000000000000113600088C
:1059D000746400080000000000000000213200088C
:1059E000B0600008E116000800000000411C00083B
:1059F0003C6000080000000000000000F1190008F1
:105A0000F85F0008B11600080000000061180008E7
:105A1000DC5F0008000000000000000071170008B3
:105A2000646100080000000000000000313500083B
:105A30004C6100080000000000000000C1340008B4
:105A4000346100080000000000000000D1330008AD
:105A5000186100080000000000000000C1320008CA
:105A6000F86000080000000000000000711D000840
:105A7000D86000080000000000000000D1180008F5
:105A8000C0590008D0590008405900080000000023
:105A9000846000080000000000000000211B0008D6
:105AA000606000080000000000000000711A00089B
:105AB000805A0008705B0008005C0008805C0008E9
:105AC000B0580008B05B0008405C0008305B00087C
:105AD000605B000860590008405B0008D05800086F
