:020000040800F2
:1000000000040020C100000811020008810200085D
:1000100081020008810200088102000881020008B4
:1000200081020008810200088102000881020008A4
:100030008102000881020008810200088102000894
:100040008102000881020008810200088102000884
:100050008102000881020008810200088102000874
:100060008102000881020008810200088102000864
:100070008102000881020008810200088102000854
:100080004104000881020008810200088102000882
:100090008102000881020008810200088102000834
:1000A0008102000881020008810200088102000824
:1000B0008102000881020008810200088102000814
:1000C00072B6224880F30988022080F31488BFF3B7
:1000D0006F8F00F085FC00F0A3FB1D481D491E4AF0
:1000E000914202DA08600431FAE71C49174A91424A
:1000F00002DA08600431FAE719491A4A1A4B9A429F
:1001000004DA0868106004310432F8E70020174967
:10011000174A914202DA08600431FAE700F020FC45
:1001200000F056FC134C144DAC4203DA21688847AA
:100130000434F9E700F0ECF9104C114DAC4203DA4D
:10014000216888470434F9E70E4908470006002073
:1001500055555555000000200004002000040020E3
:10016000D00A00080006002000060020000600203B
:10017000C0080020C0000008C0000008C00000083F
:10018000C0000008C10900080000000000000000D5
:10019000F0B544464D4656465F46F0B46B46CB60DC
:1001A000C3689D46F0BCA046A946B246BB46F0BD1A
:1001B00062B6281CA047002000F082FB00F0B0FBD4
:1001C000014A024B1360FEE704ED00E000000080EE
:1001D000FEE7C04600000000000000000000000034
:1001E00072B60722C31D93430649074A086812687E
:1001F000121A934203D8C3180B6062B670470020EE
:10020000FBE7C04698080020000600200000000020
:10021000EFF30983203383F3098862B67047C04641
:1002200072B6037F072B0CD8114A9B00D3589F4608
:10023000026A936801339360026843681A60026837
:10024000536001235B420362002382680377094BFA
:100250001B6899689142FBD25A6803604260106043
:10026000586062B670470022036A1A60E9E7C04628
:10027000F009000850070020000000000000000006
:10028000FEE7C04600000000000000000000000083
:1002900070B50025114B0562996982688C68A2428D
:1002A0000AD805771B6899688A42FBD95A680360A7
:1002B00042601060586070BD1A000D771268956832
:1002C000AC42FBD954680A604C602160516098616F
:1002D00001230377FFF75CFFEDE7C04650070020DE
:1002E000064B10B5996908771868026853601A6060
:1002F000986101230377FFF74BFF10BD50070020E3
:1003000070B586B072B63D4D01ACAB693C4E236111
:100310003C4B706AE3602B00EA691C3380B29A425E
:1003200057D0394B11899C46EB8C604480B2C31A7C
:100330009BB28B4204D22BE012685B1A11899BB2EC
:100340009942F9D35168019261600C605460238135
:100350001189CB1A138101235B42AB840820FFF77C
:10036000BFFF049B002B10D0EB69A34212D0626840
:10037000019B1C351360019B5A600022E260AB4276
:1003800003D0198922898A181A8162B606B070BD15
:100390007063D5E72B00002122681C33EA615360AB
:1003A000E1609A4227D011892389CB189BB213812F
:1003B000134A516AEA8C89B28A1A92B29342E4D9FA
:1003C0009A1A93B2012B14D9CB180D4A9BB25363DE
:1003D000DBE70D4BE8849C4623810023604480B218
:1003E000EC612C6201926260706333610233F360EE
:1003F000B4E70223E8E7024BD960C6E750070020C4
:1004000000040040210200088813000000000000E2
:10041000F8B580269024084B084A9B6976019A61BA
:10042000E405371C012567836583FFF769FF268391
:100430002583FFF765FFF5E750070020300A000825
:10044000F8B54F464646C0B42D4EF14633699B077A
:100450001BD44B460F3311D072B6EFF30983203B08
:1004600083F3098880225204DA61264A116892696E
:1004700089689268914205D8234A9A610CBC9046DB
:100480009946F8BD214A9A61F8E70023336172B6B4
:100490001C4C706AE369E78C80B2C11B1A8989B26F
:1004A00091421AD30021250088461C354046D219B6
:1004B000E2841A68D9685560E261D860AA421AD00D
:1004C00062B61869884772B6706AE369E78C80B2D1
:1004D000C11B1A8989B28A42E8D91C34A34208D0C8
:1004E000BA18131A9AB2012A07D91218044B92B2F9
:1004F0005A6362B6ADE7F060E2E70222F5E7C04674
:100500000004004050070020C0010008BD010008A1
:10051000F8B5A04B01219A6A444600225F46564630
:100520004D464942F0B499629A62186919611A619C
:10053000D9689948802401438020D960DA60D9695C
:10054000400501439548D961016864002143016079
:10055000C021186A8900014080208000814203D0B8
:100560008021490219621A6280208A4B00021A6AAD
:10057000024207D18022196A9200114319621A6A55
:1005800002431A62BC228349D2034B6900251343FC
:100590004B61012290238248DB0552425D609A60E4
:1005A000D86080485D611D625D62186080207E4B6E
:1005B000C0055D609A60D8605D611D625D62186013
:1005C0007A4B7B485D609A60D8605D6179481D62B6
:1005D0005D621D60784B01265D609A60D8605D6148
:1005E00076481D625D621D60754BC4245D609A6033
:1005F000D86002205D611D625D621D60CB6980462E
:100600000343CB616F49A4008B68402703438B6091
:100610006D4B6E496E4899626E49D962FF219D61AA
:100620005D63DD605D605E611E6003598B437F39F1
:100630000B4303518023913C5B02FF3C0351036059
:100640006548664B046A2340654C036223001C33F3
:10065000E361236200239946624BA2846248083218
:100660000733934324606460A560E58403605F4BB7
:10067000676393435E4AA76613605E4B5E4A9D6064
:100680001A601A0010321A615A61DD604A469D6193
:100690004923E25401332200E654230050322C3324
:1006A0002265220023616361A36148235432656699
:1006B00025666564E46324646265A265E65462B6F7
:1006C0004E4AA3699A6172B623002533FF33E3676C
:1006D0009A235B009A465246494B2000A3509C2324
:1006E000484A5B00E5500C33E2504246B83BE254C6
:1006F0004A460133E25484221F33E650043BE5505E
:10070000043BE550163BE654063BE5509B466369C7
:100710007030A3502200A66764501861942394326D
:10072000E250230098229833A3500432A350606112
:10073000FFF7AEFD62B65A46334BA35072B633484C
:10074000524603002533FF33C360314BC7638350E8
:100750009C232C4A5B00C5500C33C25043460377A0
:100760004B4643776369856343614563867785615B
:100770000461186103002433436203002833876057
:100780008362C3626061FFF783FD62B6FFF7B8FD65
:10079000FCE7C04600100240FFFFBFFF00700040B2
:1007A0005555456555554555000400480008004815
:1007B0005555550155555555000C00485005555592
:1007C000001400480058014000040040BF1200001F
:1007D00000E100E0FFFF000000ED00E0FFFF00FF90
:1007E00050070020C00800209808002000200020AA
:1007F00000060020A0080020E1010008100A0008FF
:10080000D1010008B10100083C0A000808060020D8
:1008100011040008000000000000000000000000BB
:100820000123022022490A6813430B600A68204B07
:100830001042FBD003215A680C208A4319005A60E9
:100840005A685A604B681A4A0340FBD1F920116874
:10085000014011605360516A01330B435362F73812
:10086000516A134B0842FBD0A02292035A60002227
:1008700080218020DA621A631A6849040A431A60E8
:10088000800419680A4A0142FBD01121094B0C204F
:100890001960022351680B435360536804490340B5
:1008A000082BFAD18A69073B13438B617047C04616
:1008B0000010024000200240000000000000000084
:1008C000F8B572B6124D0026AC6920622000616A4C
:1008D0002430884210D00B688A6863622B000E7740
:1008E0001B689F689742FBD25A680B604A60116090
:1008F0005960616A8142EED1637F9B0704D122690E
:1009000063691A61226953610F20FFF7E9FCF8BDA2
:100910005007002000000000000000000000000060
:100920000C4A10B51068916903685A6013609061B1
:100930000122027700220A778A6800E01B689C681F
:100940009442FBD85A680B604A6011605960FFF707
:100950001FFC10BD50070020000000000000000038
:1009600080229446F0B50026104F114D114C124BC9
:100970001249BC449C420DD91A0001C901C29442DB
:10098000FBD8DA431419A4080134A4001B199D42B2
:1009900002D940C39D42FCD81037674504D0BC68DB
:1009A000FD6839687B68E5E7F0BDC046500A00087D
:1009B000C0080020C0080020C0080020D00A00089D
:1009C000FEE7C0460000000000000000000000003C
:1009D0007047C0460000000000000000000000005A
:1009E0007047C0460000000000000000000000004A
:1009F0006202000842020008420200086602000883
:100A000038020008300200084202000838020008DC
:100A10006D61696E00164418040244080C10141825
:100A2000001C1D1E0000000000000000000000006F
:100A30006C6564666C6173680000000069646C65D5
:100A400000000000000000000000000000000000A6
:100A5000D00A0008C0080020C0080020C0080020FC
:100A6000D00A0008000000000000000000000000A4
:100A7000D00A000800000000000000000000000094
:100A8000D00A000800000000000000000000000084
:100A9000D00A000800000000000000000000000074
:100AA000D00A000800000000000000000000000064
:100AB000D00A000800000000000000000000000054
:100AC000D00A000800000000000000000000000044
:04000005080000C12E
:00000001FF
